:100E4F0053504920696E6974206572726F720A007F
:100E5F005344206361726420696E697420657272F5
:100E6F006F720A0053442063617264206572726F5F
:100E7F0072005344206361726420696E6974207339
:100E8F007563636573730A00534420636172642052
:100E9F007375636365737300496E70757420612099
:100EAF0076616C75653A200056616C756520456EEC
:0E0EBF007465726564203D20256C750A0D0077
:100B55007F041211C37F071211CC7F061211CC7FBF
:100B6500051211CC758E0CE4F58F7F2C7E011211C8
:100B7500557F807E25120F451210997F807E1A7D44
:100B8500067C001210068F22E522640160097BFFB6
:100B95007A0E794F12006512055E8F22E5226409EF
:100BA50060187BFF7A0E795F1200657BFF7A0E79FC
:100BB500737D0DE4FF120D49801B7BFF7A0E798151
:100BC5001200657BFF7A0E79977D0FE4FF120D49C0
:0A0BD5007F071211C37F041211CC38
:100BDF007BFF7A0E79A7120065120A848F268E2565
:100BEF008D248C237BFF7A0E79B78F468E458D44EB
:050BFF008C43120065AB
:020C040080D995
:101104008D2DEF70077F401211E580057F4012118D
:10111400EA7F801211EAAF2D1211EE7F801211E5E1
:0A1124007FFF1211EE7F400211EA76
:0311EE008F8022CD
:0511E500EFF452B022FE
:0411EA00EF42B022FE
:101099007D38E4FF1211047F017E001211557D484D
:1010A900E4FF1211047F017E001211557D01E4FF56
:1010B9001211047F027E001211557D0CE4FF1211FA
:0810C900047F017E00021155B5
:080D49008D278B288A29892AD5
:100D5100EFF46010EF4480FDE4FF1211047F017E87
:100D610000121155E5277038F52BAB28AA29A92ABD
:100D7100852B82F58312035FF52CE52C604EFD7FF8
:100D8100011211047F017E00121155052BAB28AA17
:100D910029A92A852B8275830012035FF52C80DA3D
:100DA100E4F52BE52BC395275022AB28AA29A92AC4
:100DB100852B8275830012035FF52CFD7F011211D3
:0C0DC100047F017E00121155052B80D725
:010DCD002203
:0911C300AD07E4FB7F02020CB150
:0911CC00AD077B017F02020CB1AA
:100A8400E4F52774292527F8E4F60527E527B40BB0
:100A9400F274FFF537F536F535F534E4F527121120
:100AA400DD8F28E528C394304017E528D3943950C6
:100AB4001074292527F8A6280527AF2812112E809F
:100AC40050E52864086005E528B47F1A15277429C1
:100AD4002527F8E4F67F081211D57F201211D57F5F
:100AE400081211D5802BE528640D6005E528B40AA9
:100AF4001D7B007A0079291209A68F378E368D3531
:100B04008C347F0D1211D57F0A1211D58003E4F5C0
:100B140028E527B40A1B7B007A0079291209A68FDD
:100B2400378E368D358C347F0D1211D57F0A121114
:100B3400D574FFFFFEFDFCAB37AA36A935A834C334
:100B44001204DD7003020AA2AF37AE36AD35AC3401
:010B5400227E
:101054002570200025322E326258200041646472CB
:101064002E20202030202031202032202033202028
:1010740034202035202036202037202038202039E5
:1010840020204120204220204320204420204520AD
:0510940020460A0D00DA
:100ECD008B108A1189128B438A4489457BFF7A10D6
:100EDD007954120065E4F513AB10AA11A91285130C
:100EED008275830012035FF5147BFF7A107958F534
:100EFD00431200650513E513C3941040DBE4F513AD
:100F0D00AB10AA11A91285138275830012035FF528
:100F1D0014C394204007E514D3947E400375142E1A
:100F2D00AF141211D50513E513C3941040D27F0DE4
:080F3D001211D57F0A0211D543
:0A0FA7008B088A09890A8C0B8D0C57
:100FB1008B0D8A0E890FAE02AF0153070F7E00C35E
:100FC100E99FF9EA9E8B0DF50E890F7BFF7A107967
:100FD10060120065AB0DAA0EA90F120ECD7410257B
:100FE1000FF50FE4350EF50EAB08E50A250CF9E512
:100FF10009350BFAEB8A838982C3E50F9582E50EE9
:04100100958340D0C3
:0110050022C8
:101155005389F0438901C2A9758CFA758A1FC28D1E
:10116500D28C308DFDC28CEF1F70011ED3EF940021
:06117500EE940050E3229D
:100F45008E278F2853873F438780C2AC759852E41C
:100F5500F59BAE27AF28FCFD7BC0FAF9F81203C05C
:100F6500E42FFFE43EFEED342FFDEC340DFCC00410
:100F7500C005C006C007AE27AF28E4FCFD7B807A1C
:100F850001F9F81203C0A804A905AA06AB07D00702
:100F9500D006D005D00412044BEFF404F59A759BE6
:020FA5001E220A
:0811D5003099FD8F99C29922A7
:0811DD003098FDC298AF992281
:10100600AB07AA06A905A8047F007EA07D8C7C00FC
:1010160012044B7E02E4FDEFD39E4008EE25E0FE6F
:101026000DBD07F3EFD39E501FED5404FF13135469
:101036003FFFC43333335480FFED5402FEED5401B9
:0D1046004E4F4470F5C380037F00227F01F0
:01105300227A
:1010D1008FC5E4FFADC40FED54F07003EF70F5EF71
:1010E10070097E0274FF12038C8015ED5470600943
:1010F1007E0374FF12038C80077E04E5C512038C06
:02110100AF0637
:0111030022C9
:10075B0053656E64696E6720434D44256275202096
:10076B006172673A3C200025322E32625820003EDF
:10077B000A004572726F723A20636F6D6D616E6421
:10078B003A20636F64653A2025322E3262580A0094
:10079B004572726F723A20726573706F6E73653A41
:1007AB0020636F64653A2025322E3262580A00208E
:1007BB002020726573706F6E73653A3C2000534452
:1007CB00204361726420696E69742E2E2E0A0D000F
:1007DB004572726F723A20534420636172642076C3
:1007EB006F6C74616765206973206E6F7420696E1E
:1007FB002072616E67650A00534420636172642046
:10080B0076657273696F6E3A256275200A004572C0
:10081B00726F723A20534420636172642074696D65
:10082B00656F75740A004572726F723A20534420DB
:10083B006361726420646964206E6F7420706F77DB
:10084B0065722075700A00534420636172642063E3
:10085B00617061636974793A207374616E6461725B
:10086B00640A0053442063617264206361706163A6
:0B087B006974793A20686967680A0018
:020DCE00AB0771
:100DD000EBD3943F40037F0022EB4440F547AF4400
:100DE000AE43AD42AC4178181204EE8F48E544FFA3
:100DF000E543FEE542FDE4FC78101204EE8F49E580
:100E000044FFE543FEE4FDFC78081204EE8F4AE55A
:100E100044FFE48F4BEB7005754C95800BBB0805C8
:100E2000754C878003754C01E4F54674472546F8F8
:100E3000E6FF7B007A0079451210D1EF640460036D
:0E0E40007F01220546E546C3940640DF7F038E
:010E4E002281
:080C06008F408B418A428943B3
:100C0E0075440A7B007A0079457FFF1210D18F461A
:100C1E000549E54970020548E545B4FF0CE549452F
:100C2E00486006E546640460DAE5466404600575CE
:100C3E004401805FE549454870057544048054E5DC
:100C4E004554FE6010AB41AA42A943E54512038C00
:100C5E00754405803EAB41AA42A943E54512038C7B
:100C6E00E540D39401402C754701E547C3954050AC
:100C7E00227B007A0079457FFF1210D18F46AB415F
:100C8E00AA42A943854782758300E54512039E0556
:100C9E004780D77B007A0079457FFF1210D18F46AF
:020CAE00AF4451
:010CB0002221
:10088600F536F535753905F53A753B00753C29F5AC
:030896003D7F3A69
:020899008F349A
:10089B007BFF7A07795B853443120065E4F53FE50E
:1008AB003F75F008A4F974FF7E00A801088005C30A
:1008BB0033CE33CED8F9FFEE3395E0FDFCEF553850
:1008CB00FFEE5537FEED5536FDEC5535FCA8011204
:1008DB0004EE8F468E458D448C437BFF7A077972ED
:1008EB00120065053FE53FC3940440B37BFF7A07D5
:1008FB00797A120065E4FB7D047F01120CB1853817
:10090B0044853743853642853541AF34120DCE8F42
:10091B003EE53E640360187B017D047F01120CB140
:10092B007BFF7A07797D853E431200657F0122AB01
:10093B003AAA3BA93CAF39120C068F3EE53D700934
:10094B007B017D047F01120CB1E53E640A600F7BD5
:10095B00FF7A07799B853E431200657F01227BFF5F
:10096B007A0779BA120065E4F53FE53FC395395034
:10097B001EAB3AAA3BA93C853F8275830012035FED
:10098B00F5437BFF7A077972120065053F80DB7BAD
:0A099B00FF7A07797A1200657F00E9
:0109A500222F
:10055E007BFF7A0779C91200657B017D047F01124A
:10056E000CB1E4F5277B007A0079297FFF1210D1B8
:10057E008F280527E527C3940A40EAE4F538F537B6
:10058E00F536F535753901F53A753B00753C29F5AB
:10059E003DFF1208998F28E52864016006E529645D
:1005AE000160037F0622E47538AA753701F536F52A
:1005BE0035753905F53A753B00753C29F53D7F08D3
:1005CE001208998F28E528B401037F0622E529B485
:1005DE000115753102E52C640160197BFF7A0779EC
:1005EE00DB1200657F0722E529B405057531018010
:1005FE00037F06227BFF7A0879038531431200655B
:10060E00E47538AA7537011208868F28E52864012B
:10061E006006E529640160037F0622E52B54FC6425
:10062E00FC600C7BFF7A0779DB1200657F0722E402
:10063E00F532F533E4F538F537F536F5357539011C
:10064E00F53A753B00753C29753D017F37120899C7
:10065E008F28E52864016006E529640160037F06A2
:10066E0022E531B40120E4F538F537F536F5357568
:10067E003901F53A753B00753C29753D017F29120C
:10068E0008998F28801FE4F538F537F53675354013
:10069E00753901F53A753B00753C29753D017F2989
:1006AE001208998F28E528B401037F06220533E549
:1006BE00337002053245326007E5296003020642B7
:1006CE007B017D047F01120CB1E5334532700C7B4A
:1006DE00FF7A0879191200657F0622E531640270EF
:1006EE0069F538F5371208868F28E528640160040D
:1006FE00E52960037F0622E52A20E70C7BFF7A08B6
:10070E0079311200657F0822E52A20E6347BFF7AD4
:10071E00087952120065E4F538753702F536F5356D
:10072E00753901F53A753B00753C29F53D7F101280
:10073E0008998F28E52864016004E529600C7F067E
:0C074E00227BFF7A08796E1200657F099B
:01075A00227C
:100CB100EB6049EF14601B1460261460312403605B
:100CC10003020D487401A805088002C333D8FC4211
:100CD10080227401A805088002C333D8FC42902207
:100CE1007401A805088002C333D8FC42A022740114
:100CF100A805088002C333D8FC42B022EF14601962
:100D01001460251460312403703D7401A805088026
:100D110002C333D8FCF45280227401A80508800272
:100D2100C333D8FCF45290227401A805088002C391
:100D310033D8FCF452A022AF057401A80708800241
:080D4100C333D8FCF452B022C8
:10117B00EF14600D14600D14600D2403700B8D8043
:0A118B00228D90228DA0228DB0224B
:030000000211B733
:0C11B700787FE4F6D8FD758153020B55DB
:10035F00BB010CE58229F582E5833AF583E0225053
:10036F0006E92582F8E622BBFE06E92582F8E2229D
:0D037F00E58229F582E5833AF583E49322B7
:10038C00BB010689828A83F0225002F722BBFE0150
:02039C00F3224A
:10039E00F8BB010DE58229F582E5833AF583E8F095
:1003AE00225006E92582C8F622BBFE05E92582C841
:0203BE00F22229
:1003C000E88FF0A4CC8BF0A42CFCE98EF0A42CFCDC
:1003D0008AF0EDA42CFCEA8EF0A4CDA8F08BF0A45A
:1003E0002DCC3825F0FDE98FF0A42CCD35F0FCEBB9
:1003F0008EF0A4FEA9F0EB8FF0A4CFC5F02ECD397E
:0F040000FEE43CFCEAA42DCE35F0FDE43CFC22EA
:10040F0075F008758200EF2FFFEE33FECD33CDCCA4
:10041F0033CCC58233C5829BED9AEC99E582984027
:10042F000CF582EE9BFEED9AFDEC99FC0FD5F0D604
:10043F00E4CEFBE4CDFAE4CCF9A88222B800C1B92E
:10044F000059BA002DEC8BF084CFCECDFCE5F0CB6C
:10045F00F97818EF2FFFEE33FEED33FDEC33FCEBA5
:10046F0033FB10D703994004EB99FB0FD8E5E4F960
:10047F00FA227818EF2FFFEE33FEED33FDEC33FC4D
:10048F00C933C910D7059BE99A4007EC9BFCE99A41
:10049F00F90FD8E0E4C9FAE4CCFB2275F010EF2F86
:1004AF00FFEE33FEED33FDCC33CCC833C810D70786
:1004BF009BEC9AE899400AED9BFDEC9AFCE899F8C1
:0E04CF000FD5F0DAE4CDFBE4CCFAE4C8F92254
:1004DD00EB9FF5F0EA9E42F0E99D42F0E89C45F075
:0104ED0022EC
:1004EE00E8600FECC313FCED13FDEE13FEEF13FFEC
:0304FE00D8F12210
:10112E00EFB40A07740D121139740A309811A89988
:10113E00B8130CC2983098FDA899C298B811F63021
:07114E0099FDC299F59922F9
:10000300E54F2443F8E6054F227840300702784352
:10001300E475F0011205280205012000EB7F2ED2C2
:10002300008018EF540F2490D43440D4FF30040BD5
:10003300EF24BFB41A0050032461FFE5506002159A
:10004300500553E5537002055230070D7840E475AF
:10005300F001120528EF02038C02112E7403D2075C
:100063008003E4C207F54F8B408A418942E4F5508F
:10007300F552F553E55060077F2012003E80F57579
:1000830051FFC201C200C202C203C205C206C208B6
:1000930012000CFF700D3007057F0012004FAF53A5
:1000A300AE5222B4255FC2D5C20412000CFF24D085
:1000B300B40A00501A75F00A785030D50508B6FF17
:1000C3000106C6A426F620D5047002D20380D924E3
:1000D300CFB41A00EF5004C2E5D20402024FD2019A
:1000E30080C6D20080C0D20280BCD2D580BAD205ED
:1000F30080B47F2012003E2002077401B5500040F7
:10010300F1120003FF12003E020077D208D20680EC
:1001130095120003FB120003FA120003F94A4B7015
:100123000679207A037BFF20022EE550602A7E00A9
:100133008E8275830012035F60060EEE655170F0C8
:10014300C2D5EBC0E0EAC0E0E9C0E0EE120296D00F
:10015300E0F9D0E0FAD0E0FB120501FF60AAEBC0A2
:10016300E0EAC0E0E9C0E012003ED0E02401F9D0AB
:10017300E03400FAD0E0FBE5510460DCD551D980CE
:10018300877BFF7A027992D202809C791080027970
:1001930008C206C2088008D2D5790A8004790AC247
:1001A300D5E551047002F551E4FAFDFEFF12000398
:1001B300FC7B08200113120003FD7B1030000A12A0
:1001C3000003FE120003FF7B20EC3382D592D5504F
:1001D30013C3E43000069FFFE49EFEE42001039D69
:1001E300FDE49CFCE4CBF8C201EC700CCFCECDCC8B
:1001F300E824F8F870F38017C3EF33FFEE33FEED16
:1002030033FDEC33FCEB33FB994002FB0FD8E9EBF6
:10021300300105F8D0E0C448B201C0E00AEC4D4E0D
:100223004F78207B0070C2EAB5510040BCC0E01299
:100233000298D0F0D0E0200104C4C0E0C4B201C0F1
:10024300F0120027D0F0D5F0EB0200771205380149
:100253001453018E5800E54C00E14201924F019A7C
:1002630044019A4900FA4301A0550184460184459B
:1002730001844703405000E92D00ED2E01102B00AF
:10028300F123010E20032E2A00A948000001083F94
:100293003F3F00790AA2D5200314300509B91002A3
:1002A3000404B9080104A2D5200602500104200267
:0502B300689202B55045
:1002B800005034C0E07F203003197F30A20272065C
:1002C8007205500F1202EFC202C206C205C2087FB1
:1002D80030800F300503E9C0E012003E300503D03E
:1002E800E0F9D0E0B550CC3005177F30B9100C12CA
:1002F800003E7F583004077F788003B90803120056
:100308003E3002057F2D02003E7F202008F87F2B1B
:100318002006F322920280CF286E756C6C29002D7E
:1003280050434958D2011200033001F8C2017850F5
:1003380030D50108F60200A91200032403B4050011
:100348004001E49003279312002F743A12002FD231
:070358000375500402018E41
:1009A6008B388A39893AAB38AA39A93A120501FF38
:1009B600121195500D7401253AF53AE43539F53999
:1009C60080E4D200AB38AA39A93A120501FF642B9C
:1009D6006004EFB42D1BAB38053AE53AAA3970022C
:1009E600053914F9120501642D6003D38001C39201
:1009F60000E4F53EF53DF53CF53BAB38AA39A93A9E
:100A0600120501FF1211A8505CE47F0AFEFDFCAB43
:100A16003EAA3DA93CA83B1203C0C8ECC8EDC0E005
:100A2600EEC0E0EFC0E0AB38AA39A93A120501FFE3
:100A36003395E0FEEF24D0FFEE34FFFEE4FCFDD05C
:100A4600E0FBD0E0FAD0E0F9EB2FF53EEA3EF53DCB
:100A5600ED39F53CEC38F53B7401253AF53AE435C9
:100A660039F539809530000AAF3EAE3DAD3CAC3B22
:0E0A7600800BAF3EAE3DAD3CAC3B12051A22EC
:10050100BB010689828A83E0225002E722BBFE02F8
:09051100E32289828A83E493222B
:0E051A00C3E49FFFE49EFEE49DFDE49CFC22F2
:10052800FAE6FB0808E6F925F0F618E6CA3AF622D4
:10053800D083D082F8E4937012740193700DA3A352
:1005480093F8740193F5828883E473740293686066
:06055800EFA3A3A380DF66
:0F11A800EFC394304007EF943A50028001C32206
:10119500EFC394094005EF940E4003BF2003D380AD
:0311A50001C32261
:00000001FF
