:100E3D0053504920696E6974206572726F720A0091
:100E4D005344206361726420696E69742065727207
:100E5D006F720A0053442063617264206572726F71
:100E6D0072005344206361726420696E697420734B
:100E7D007563636573730A00534420636172642064
:100E8D007375636365737300496E707574206120AB
:100E9D00626C6F636B206E756D62657220746F206E
:100EAD00726561643A2000426C6F636B20726571EC
:100EBD00756573746564203D20256C750A0D00659C
:100ECD0072726F722072656164696E67205344207F
:0C0EDD006361726420626C6F636B0A003A
:1009DC007F041213637F0712136C7F0612136C7F54
:1009EC000512136C758E0CE4F58F7F2C7E0112139F
:1009FC000F7F807E251210FF1212537F807E1A7D8E
:100A0C00067C001211C08F22E522640160097BFF75
:100A1C007A0E793D12006512055E8F22E52264097B
:100A2C0060187BFF7A0E794D1200657BFF7A0E7988
:100A3C00617D0DE4FF120F81801B7BFF7A0E796FB5
:100A4C001200657BFF7A0E79857D0FE4FF120F8112
:100A5C007F071213637F807E847D1E7C001211C081
:100A6C008F22E522640160097BFF7A0E793D12002A
:060A7C00657F0412136CFB
:100A82007BFF7A0E7995120065120CBC8F268E259B
:100A92008D248C237BFF7A0E79B48F498E488D4743
:100AA2008C461200657F06121363AF26AE25AD2475
:100AB200AC23752B02752C00752D01752E00752F38
:100AC20000120AEC8F227F0612136CE522B40B0F80
:100AD2007B017A0079007D007C0212116180A17B8A
:080AE200FF7A0E79CC120065C9
:020AEA008096F4
:1012BE008D2DEF70077F4012138580057F4012132E
:1012CE008A7F8012138AAF2D12138E7F80121385A0
:0A12DE007FFF12138E7F4002138A77
:03138E008F80222B
:05138500EFF452B0225C
:04138A00EF42B0225C
:101253007D38E4FF1212BE7F017E0012130F7D481A
:10126300E4FF1212BE7F017E0012130F7D01E4FF23
:101273001212BE7F027E0012130F7D0CE4FF1212C6
:08128300BE7F017E0002130F83
:080F81008D278B288A29892A9B
:100F8900EFF46010EF4480FDE4FF1212BE7F017E92
:100F99000012130FE5277038F52BAB28AA29A92AC7
:100FA900852B82F58312035FF52CE52C604EFD7FBE
:100FB900011212BE7F017E0012130F052BAB28AA66
:100FC90029A92A852B8275830012035FF52C80DA03
:100FD900E4F52BE52BC395275022AB28AA29A92A8A
:100FE900852B8275830012035FF52CFD7F01121298
:0C0FF900BE7F017E0012130F052B80D775
:0110050022C8
:09136300AD07E4FB7F02020EE974
:09136C00AD077B017F02020EE9CE
:100CBC00E4F52774292527F8E4F60527E527B40B76
:100CCC00F274FFF537F536F535F534E4F5271213E4
:100CDC007D8F28E528C394304017E528D3943950EC
:100CEC001074292527F8A6280527AF281212E880AA
:100CFC0050E52864086005E528B47F1A1527742987
:100D0C002527F8E4F67F081213757F201213757FE0
:100D1C0008121375802BE528640D6005E528B40ACC
:100D2C001D7B007A007929120BDE8F378E368D35BC
:100D3C008C347F0D1213757F0A1213758003E4F542
:100D4C0028E527B40A1B7B007A007929120BDE8F69
:100D5C00378E368D358C347F0D1213757F0A121336
:100D6C007574FFFFFEFDFCAB37AA36A935A834C35A
:100D7C001204DD7003020CDAAF37AE36AD35AC348D
:010D8C002244
:10120E002570200025322E3262582000416464720F
:10121E002E2020203020203120203220203320206C
:10122E003420203520203620203720203820203929
:10123E0020204120204220204320204420204520F1
:05124E0020460A0D001E
:101087008B2F8A3089318B468A4789487BFF7A12B2
:10109700790E120065E4F532AB2FAA30A9318532FB
:1010A7008275830012035FF5337BFF7A127912F59D
:1010B700461200650532E532C3941040DBE4F53291
:1010C700AB2FAA30A93185328275830012035FF5F1
:1010D70033C394204007E533D3947E400375332E02
:1010E700AF331213750532E532C3941040D27F0D2A
:0810F7001213757F0A02137544
:0A1161008B278A2889298C2A8D2B00
:10116B008B2C8A2D892EAE02AF0153070F7E00C345
:10117B00E99FF9EA9E8B2CF52D892E7BFF7A12794C
:10118B001A120065AB2CAA2DA92E121087741025EC
:10119B002EF52EE4352DF52DAB27E529252BF9E57D
:1011AB0028352AFAEB8A838982C3E52E9582E52DB1
:0411BB00958340D008
:0111BF00220D
:10130F005389F0438901C2A9758CFA758A1FC28D62
:10131F00D28C308DFDC28CEF1F70011ED3EF940065
:06132F00EE940050E322E1
:1010FF008E278F2853873F438780C2AC759852E461
:10110F00F59BAE27AF28FCFD7BC0FAF9F81203C0A0
:10111F00E42FFFE43EFEED342FFDEC340DFCC00454
:10112F00C005C006C007AE27AF28E4FCFD7B807A60
:10113F0001F9F81203C0A804A905AA06AB07D00746
:10114F00D006D005D00412044BEFF404F59A759B2A
:02115F001E224E
:081375003099FD8F99C2992205
:08137D003098FDC298AF9922DF
:1011C000AB07AA06A905A8047F007EA07D8C7C0041
:1011D00012044B7E02E4FDEFD39E4008EE25E0FEB4
:1011E0000DBD07F3EFD39E501FED5404FF131354AE
:1011F0003FFFC43333335480FFED5402FEED5401FE
:0D1200004E4F4470F5C380037F00227F0134
:01120D0022BE
:10128B008FC5E4FFADC40FED54F07003EF70F5EFB5
:10129B0070097E0274FF12038C8015ED5470600987
:1012AB007E0374FF12038C80077E04E5C512038C4A
:0212BB00AF067C
:0112BD00220E
:10075B0053656E64696E6720434D44256275202096
:10076B006172673A3C200025322E32625820003EDF
:10077B000A004572726F723A20636F6D6D616E6421
:10078B003A20636F64653A2025322E3262580A0094
:10079B004572726F723A20726573706F6E73653A41
:1007AB0020636F64653A2025322E3262580A00208E
:1007BB002020726573706F6E73653A3C2000534452
:1007CB00204361726420696E69742E2E2E0A0D000F
:1007DB004572726F723A20534420636172642076C3
:1007EB006F6C74616765206973206E6F7420696E1E
:1007FB002072616E67650A00534420636172642046
:10080B0076657273696F6E3A256275200A004572C0
:10081B00726F723A20534420636172642074696D65
:10082B00656F75740A004572726F723A20534420DB
:10083B006361726420646964206E6F7420706F77DB
:10084B0065722075700A00534420636172642063E3
:10085B00617061636974793A207374616E6461725B
:10086B00640A0053442063617264206361706163A6
:10087B006974793A20686967680A00576169746915
:10088B006E6720666F72206461746120737461728D
:10089B007420746F6B656E0A00446174612073740D
:1008AB0061727420746F6B656E20666F756E640A6F
:0108BB00003C
:02100600AB0736
:10100800EBD3943F40037F0022EB4440F54AAF47BF
:10101800AE46AD45AC4478181204EE8F4BE547FF59
:10102800E546FEE545FDE4FC78101204EE8F4CE53C
:1010380047FFE546FEE4FDFC78081204EE8F4DE517
:1010480047FFE48F4EEB7005754F95800BBB080585
:10105800754F878003754F01E4F549744A2549F8AF
:10106800E6FF7B007A00794812128BEF6404600374
:0E1078007F01220549E549C3940640DF7F034E
:011086002247
:080D8D008F438B448A4589461F
:100D950075470AE4F54BF54C7B007A0079487FFFEF
:100DA50012128B8F49054CE54C7002054BE548B492
:100DB500FF0CE54C454B6006E549640460DAE549FE
:100DC50064046005754701805FE54C454B7005750A
:100DD50047048054E54854FE6010AB44AA45A94633
:100DE500E54812038C754705803EAB44AA45A946E4
:100DF500E54812038CE543D39401402C754A01E57F
:100E05004AC3954350227B007A0079487FFF12122E
:100E15008B8F49AB44AA45A946854A82758300E56F
:100E25004812039E054A80D77B007A0079487FFFE8
:070E350012128B8F49AF4739
:010E3C002293
:1008BC00F539F538753C05F53D753E00753F29F564
:0308CC00407F3A30
:0208CF008F3761
:1008D1007BFF7A07795B853746120065E4F542E5CF
:1008E1004275F008A4F974FF7E00A801088005C3D1
:1008F10033CE33CED8F9FFEE3395E0FDFCEF553B17
:10090100FFEE553AFEED5539FDEC5538FCA80112C4
:1009110004EE8F498E488D478C467BFF7A077972AA
:100921001200650542E542C3940440B37BFF7A0798
:10093100797A120065E4FB7D047F01120EE9853BA3
:1009410047853A46853945853844AF371210068FB9
:1009510041E541640360187B017D047F01120EE9CA
:100961007BFF7A07797D8541461200657F0122ABC5
:100971003DAA3EA93FAF3C120D8D8F41E540700964
:100981007B017D047F01120EE9E541640A600F7B62
:10099100FF7A07799B8541461200657F01227BFF23
:1009A1007A0779BA120065E4F542E542C3953C50F5
:1009B1001EAB3DAA3EA93F85428275830012035FAB
:1009C100F5467BFF7A077972120065054280DB7B71
:0A09D100FF7A07797A1200657F00B3
:0109DB0022F9
:10055E007BFF7A0779C91200657B017D047F01124A
:10056E000EE9E4F5277B007A0079297FFF12128BC2
:10057E008F280527E527C3940A40EAE4F53BF53AB0
:10058E00F539F538753C01F53D753E00753F29F599
:10059E0040FF1208CF8F28E52864016006E5296424
:1005AE000160037F0622E4753BAA753A01F539F521
:1005BE0038753C05F53D753E00753F29F5407F08C1
:1005CE001208CF8F28E528B401037F0622E529B44F
:1005DE000115753102E52C640160197BFF7A0779EC
:1005EE00DB1200657F0722E529B405057531018010
:1005FE00037F06227BFF7A08790385314612006558
:10060E00E4753BAA753A011208BC8F28E5286401EF
:10061E006006E529640160037F0622E52B54FC6425
:10062E00FC600C7BFF7A0779DB1200657F0722E402
:10063E00F532F533E4F53BF53AF539F538753C010D
:10064E00F53D753E00753F297540017F371208CF85
:10065E008F28E52864016006E529640160037F06A2
:10066E0022E531B40120E4F53BF53AF539F538755C
:10067E003C01F53D753E00753F297540017F2912FD
:10068E0008CF8F28801FE4F53BF53AF539753840D1
:10069E00753C01F53D753E00753F297540017F297A
:1006AE001208CF8F28E528B401037F06220533E513
:1006BE00337002053245326007E5296003020642B7
:1006CE007B017D047F01120EE9E5334532700C7B10
:1006DE00FF7A0879191200657F0622E531640270EF
:1006EE0069F53BF53A1208BC8F28E52864016004D1
:1006FE00E52960037F0622E52A20E70C7BFF7A08B6
:10070E0079311200657F0822E52A20E6347BFF7AD4
:10071E00087952120065E4F53B753A02F539F53861
:10072E00753C01F53D753E00753F29F5407F101271
:10073E0008CF8F28E52864016004E529600C7F0648
:0C074E00227BFF7A08796E1200657F099B
:01075A00227C
:100AEC0075300A8F3B8E3A8D398C38753C01753DCB
:100AFC0000753E00753F317540017F111208CFE53E
:100B0C003264016004E53160037F0C227BFF7A08BC
:100B1C007986120065E4F533F5347B007A0079317F
:100B2C007FFF12128B8F320534E53470020533E5EA
:100B3C0031B4FF0CE53445336006E532640460DA09
:100B4C00E534453370037F0422E532640460037F8F
:100B5C000122E53164FE704A7BFF7A0879A4120009
:100B6C0065E4F535F536C3E536952CE535952B5012
:100B7C00347B007A0079317FFF12128B8F32E53291
:100B8C00640460037F0C22AB2DAA2EA92F8536821C
:100B9C00853583E53112039E0536E53670C805357B
:100BAC0080C47F0C227B007A0079317FFF12128B7C
:100BBC007B007A0079317FFF12128B7B007A0079EF
:100BCC00317FFF12128B7B017D047F01120EE97FB6
:010BDC000B0D
:010BDD0022F5
:100EE900EB6049EF14601B14602614603124036021
:100EF90003020F807401A805088002C333D8FC429D
:100F090080227401A805088002C333D8FC429022CC
:100F19007401A805088002C333D8FC42A0227401D9
:100F2900A805088002C333D8FC42B022EF14601927
:100F39001460251460312403703D7401A8050880EC
:100F490002C333D8FCF45280227401A80508800238
:100F5900C333D8FCF45290227401A805088002C357
:100F690033D8FCF452A022AF057401A80708800207
:080F7900C333D8FCF452B0228E
:0300000002135791
:0C135700787FE4F6D8FD7581560209DCB1
:10035F00BB010CE58229F582E5833AF583E0225053
:10036F0006E92582F8E622BBFE06E92582F8E2229D
:0D037F00E58229F582E5833AF583E49322B7
:10038C00BB010689828A83F0225002F722BBFE0150
:02039C00F3224A
:10039E00F8BB010DE58229F582E5833AF583E8F095
:1003AE00225006E92582C8F622BBFE05E92582C841
:0203BE00F22229
:1003C000E88FF0A4CC8BF0A42CFCE98EF0A42CFCDC
:1003D0008AF0EDA42CFCEA8EF0A4CDA8F08BF0A45A
:1003E0002DCC3825F0FDE98FF0A42CCD35F0FCEBB9
:1003F0008EF0A4FEA9F0EB8FF0A4CFC5F02ECD397E
:0F040000FEE43CFCEAA42DCE35F0FDE43CFC22EA
:10040F0075F008758200EF2FFFEE33FECD33CDCCA4
:10041F0033CCC58233C5829BED9AEC99E582984027
:10042F000CF582EE9BFEED9AFDEC99FC0FD5F0D604
:10043F00E4CEFBE4CDFAE4CCF9A88222B800C1B92E
:10044F000059BA002DEC8BF084CFCECDFCE5F0CB6C
:10045F00F97818EF2FFFEE33FEED33FDEC33FCEBA5
:10046F0033FB10D703994004EB99FB0FD8E5E4F960
:10047F00FA227818EF2FFFEE33FEED33FDEC33FC4D
:10048F00C933C910D7059BE99A4007EC9BFCE99A41
:10049F00F90FD8E0E4C9FAE4CCFB2275F010EF2F86
:1004AF00FFEE33FEED33FDCC33CCC833C810D70786
:1004BF009BEC9AE899400AED9BFDEC9AFCE899F8C1
:0E04CF000FD5F0DAE4CDFBE4CCFAE4C8F92254
:1004DD00EB9FF5F0EA9E42F0E99D42F0E89C45F075
:0104ED0022EC
:1004EE00E8600FECC313FCED13FDEE13FEEF13FFEC
:0304FE00D8F12210
:1012E800EFB40A07740D1212F3740A309811A89912
:1012F800B8130CC2983098FDA899C298B811F63066
:0713080099FDC299F599223D
:10000300E5522446F8E60552227843300702784643
:10001300E475F0011205280205012000EB7F2ED2C2
:10002300008018EF540F2490D43440D4FF30040BD5
:10003300EF24BFB41A0050032461FFE55360021597
:10004300530556E5567002055530070D7843E475A0
:10005300F001120528EF02038C0212E87403D207A1
:100063008003E4C207F5528B438A448945E4F55380
:10007300F555F556E55360077F2012003E80F57570
:1000830054FFC201C200C202C203C205C206C208B3
:1000930012000CFF700D3007057F0012004FAF56A2
:1000A300AE5522B4255FC2D5C20412000CFF24D082
:1000B300B40A00501A75F00A785330D50508B6FF14
:1000C3000106C6A426F620D5047002D20380D924E3
:1000D300CFB41A00EF5004C2E5D20402024FD2019A
:1000E30080C6D20080C0D20280BCD2D580BAD205ED
:1000F30080B47F2012003E2002077401B5530040F4
:10010300F1120003FF12003E020077D208D20680EC
:1001130095120003FB120003FA120003F94A4B7015
:100123000679207A037BFF20022EE553602A7E00A6
:100133008E8275830012035F60060EEE655470F0C5
:10014300C2D5EBC0E0EAC0E0E9C0E0EE120296D00F
:10015300E0F9D0E0FAD0E0FB120501FF60AAEBC0A2
:10016300E0EAC0E0E9C0E012003ED0E02401F9D0AB
:10017300E03400FAD0E0FBE5540460DCD554D980C8
:10018300877BFF7A027992D202809C791080027970
:1001930008C206C2088008D2D5790A8004790AC247
:1001A300D5E554047002F554E4FAFDFEFF12000392
:1001B300FC7B08200113120003FD7B1030000A12A0
:1001C3000003FE120003FF7B20EC3382D592D5504F
:1001D30013C3E43000069FFFE49EFEE42001039D69
:1001E300FDE49CFCE4CBF8C201EC700CCFCECDCC8B
:1001F300E824F8F870F38017C3EF33FFEE33FEED16
:1002030033FDEC33FCEB33FB994002FB0FD8E9EBF6
:10021300300105F8D0E0C448B201C0E00AEC4D4E0D
:100223004F78207B0070C2EAB5540040BCC0E01296
:100233000298D0F0D0E0200104C4C0E0C4B201C0F1
:10024300F0120027D0F0D5F0EB0200771205380149
:100253001453018E5800E54C00E14201924F019A7C
:1002630044019A4900FA4301A0550184460184459B
:1002730001844703405000E92D00ED2E01102B00AF
:10028300F123010E20032E2A00A948000001083F94
:100293003F3F00790AA2D5200314300509B91002A3
:1002A3000404B9080104A2D5200602500104200267
:0502B300689202B55342
:1002B800005034C0E07F203003197F30A20272065C
:1002C8007205500F1202EFC202C206C205C2087FB1
:1002D80030800F300503E9C0E012003E300503D03E
:1002E800E0F9D0E0B553CC3005177F30B9100C12C7
:1002F800003E7F583004077F788003B90803120056
:100308003E3002057F2D02003E7F202008F87F2B1B
:100318002006F322920280CF286E756C6C29002D7E
:1003280050434958D2011200033001F8C2017853F2
:1003380030D50108F60200A91200032403B4050011
:100348004001E49003279312002F743A12002FD231
:070358000375530402018E3E
:100BDE008B388A39893AAB38AA39A93A120501FFFE
:100BEE00121335500D7401253AF53AE43539F539BD
:100BFE0080E4D200AB38AA39A93A120501FF642B62
:100C0E006004EFB42D1BAB38053AE53AAA397002F1
:100C1E00053914F9120501642D6003D38001C392C6
:100C2E0000E4F53EF53DF53CF53BAB38AA39A93A63
:100C3E00120501FF121348505CE47F0AFEFDFCAB67
:100C4E003EAA3DA93CA83B1203C0C8ECC8EDC0E0CB
:100C5E00EEC0E0EFC0E0AB38AA39A93A120501FFA9
:100C6E003395E0FEEF24D0FFEE34FFFEE4FCFDD022
:100C7E00E0FBD0E0FAD0E0F9EB2FF53EEA3EF53D91
:100C8E00ED39F53CEC38F53B7401253AF53AE4358F
:100C9E0039F539809530000AAF3EAE3DAD3CAC3BE8
:0E0CAE00800BAF3EAE3DAD3CAC3B12051A22B2
:10050100BB010689828A83E0225002E722BBFE02F8
:09051100E32289828A83E493222B
:0E051A00C3E49FFFE49EFEE49DFDE49CFC22F2
:10052800FAE6FB0808E6F925F0F618E6CA3AF622D4
:10053800D083D082F8E4937012740193700DA3A352
:1005480093F8740193F5828883E473740293686066
:06055800EFA3A3A380DF66
:0F134800EFC394304007EF943A50028001C32264
:10133500EFC394094005EF940E4003BF2003D3800B
:0313450001C322BF
:00000001FF
